:100000000C942C050C9449050C9449050C94490555
:100010000C9449050C9449050C9449050C94490528
:100020000C9449050C9449050C94E01B0C949C1B02
:100030000C94192F0C9449050C9449050C9449050E
:100040000C9449050C9449050C9449050C944905F8
:100050000C9449050C94BD1C0C9449050C9449055D
:100060000C9449050C9449050C9449050C944905D8
:100070000C9449050C9449050C9449050C944905C8
:100080000C9449050C9449050C9449050C944905B8
:100090000C9449050C9449050C9449050C944905A8
:1000A0000C9449050C9449050C9449050000000086
:1000B0000000000000000000000000000000000040
:1000C0000000000000000000000000000000000030
:1000D0000000000000000000000000000000000020
:1000E0000000000000000000000000000000000010
:1000F0000000000000000000000000000000000000
:1001000000000000000000000000000000000000EF
:1001100000000000000000000000000000000000DF
:1001200000000000000000000000000000000000CF
:1001300000000000000000000000000020B0FF20D0
:10014000B0FF20B0FF20B0FF20B0FF0AE1FF0AE1BE
:10015000FF0AE1FF0AE1FF0AE1FFF3DEEAF3DEEA6C
:10016000F3DEEAF3DEEAF3DEEA55CB9E55CB9E558D
:10017000CB9E55CB9E55CB9E86FFD586FFD586FF61
:10018000D586FFD520B0FF20B0FF20B0FF20B0FF04
:1001900020B0FF0AE1FF0AE1FF0AE1FF0AE1FF0ADE
:1001A000E1FFF3DEEAF3DEEAF3DEEAF3DEEAF3DEB2
:1001B000EA55CB9E55CB9E55CB9E55CB9E55CB9E9F
:1001C00086FFD586FFD586FFD586FFD569FFFF69F7
:1001D000FFFF69FFFF69FFFF69FFFFF9E4FFF9E433
:1001E000FFF9E4FFF9E4FFF9E4FF23FFFF23FFFF3A
:1001F00023FFFF23FFFF23FFFF9AFFFF9AFFFF9AD2
:10020000FFFF9AFFFF9AFFFF0EFFFF0EFFFF0EFF9B
:10021000FF0EFFFF69FFFF69FFFF69FFFF69FFFF37
:1002200069FFFFF9E4FFF9E4FFF9E4FFF9E4FFF9FE
:10023000E4FF23FFFF23FFFF23FFFF23FFFF23FF35
:10024000FF9AFFFF9AFFFF9AFFFF9AFFFF9AFFFFB7
:100250000EFFFF0EFFFF0EFFFF0EFFFF82E8E98299
:10026000E8E982E8E982E8E982E8E90000000000C4
:10027000000000000000000000000000000000007E
:10028000000000000000000000000000000000006E
:10029000000000000000000000000000000000005E
:1002A0000000000082E8E982E8E982E8E982E8E902
:1002B00082E8E900000000000000000000000000EB
:1002C000000000000000000000000000000000002E
:1002D000000000000000000000000000000000001E
:1002E000000000000000000000000000000000000E
:1002F00000000000000000000000000000000000FE
:100300007E0F00D4FFFFFFC7000000780000000050
:10031000000000002A2B2800000000000000000060
:100320000000000000000029000000002C1E342006
:10033000212224342627252E362D3738271E1F202C
:100340002122232425263333362E37381F04050671
:100350000708090A0B0C0D0E0F10111213141516B5
:100360001718191A1B1C1D2F3130232D35040506B3
:100370000708090A0B0C0D0E0F1011121314151695
:100380001718191A1B1C1D2F3130354C00010101A3
:100390000101010101010202020202020202020342
:1003A0000303030303030304040404040404050512
:1003B00005050506060606060707070707080808D5
:1003C00008090909090A0A0A0B0B0B0C0C0C0D0D84
:1003D0000D0E0E0E0F0F0F1010111111121213131C
:1003E0001414151516161717181819191A1A1B1B95
:1003F0001C1D1D1E1E1F20202122222324242526F1
:1004000026272829292A2B2C2D2D2E2F3031323228
:10041000333435363738393A3B3C3D3E3F40414234
:10042000434445464748494A4C4D4E4F505153541A
:10043000555658595A5B5D5E5F61626465666869CE
:100440006B6C6D6F7072737577787A7B7D7E80824E
:10045000838587888A8C8E8F91939596989A9C9E97
:10046000A0A2A3A5A7A9ABADAFB1B3B5B7BABCBEA7
:10047000C0C2C4C6C9CBCDCFD1D4D6D8DBDDDFE274
:10048000E4E7E9EBEEF0F3F5F8FAFDFF0102E20133
:1004900001050103E201043130307C010106000155
:1004A00002E20101050103E201043130307C010167
:1004B00015000102E00102E10101050103E1010370
:1004C000E0000102E001010F0103E0000102E00190
:1004D00001050103E0000102E00101160103E00152
:1004E000043130307C010128000102E001010C01DF
:1004F00003E001043130307C010128000102E001F9
:10050000010C0103E0000102E00101050103E0012B
:10051000043130307C010128000102E001010F01AB
:1005200003E001043130307C010128000102E001C8
:1005300001170103E001043130307C010128000182
:1005400002E00101190103E0000102E20102E00101
:1005500002E10101130103E10103E00103E20001F3
:1005600002E201012B0103E2000102E001010601A8
:1005700003E0002E004C002A00E100E00000001E15
:1005800000140004001D6134004D001F001A001605
:10059000001B00E1042A00200008000700060050AC
:1005A000002C0021001500090019004F004B00220B
:1005B0000017000A0005000000656444000C5D009F
:1005C000000D5D00000E5D45000F5D000032000073
:1005D00000E20023001C000B001100000029612430
:1005E0000018000D0010005200035425000C000EEE
:1005F00000360051002800260012000F0037002F9F
:10060000002B002700130033003871300011502DEB
:100610000031003468E50046000000105D115D12F5
:100620005D01000100000001000100010001000166
:1006300000010001000100010001000100010001B2
:1006400000010001000100010001000100010001A2
:100650000001000100010001000100010001000093
:10066000000100010001000000135D000001000115
:100670000001000000175D00000100010001000101
:100680000001000000010001000100010001000163
:1006900000105001000100010001000100010001F3
:1006A0000001000100010001000100010001000142
:1006B00000010001001250145D155D165D0100017E
:1006C000000000185D195D1A5D01000100000001C5
:1006D0000001000100010001000100010001000112
:1006E0000001000100010001000100010001000102
:1006F00000010001000100010001000100010043B0
:1007000000010001000100000001000100010000E3
:1007100000010000000100010001000000010000D4
:1007200000010001000100010001000000010001C2
:1007300000010001000100010001000100010001B1
:1007400000010001000100010001000100010001A1
:100750000001000100010001000100010001003E54
:10076000003E010100010001000000C35C085D01C2
:10077000000100010000003A000100010001000139
:100780000001003B00010001000100010001003CEC
:1007900000010001000100010001003D0001000115
:1007A000000100010001003E000100010001000005
:1007B0000001000100010000000100000001000133
:1007C00000010000000100000001003F00010001E5
:1007D00000010000000100400001000100010001D3
:1007E0000001004100010001000100010001004280
:1007F00000010001000100010001004300010001AF
:10080000000100010001000B5D0100010001000179
:100810000000000A00000000000306B2000800010A
:10082000000000A800080002000200A0001400035D
:100830000057494E555342000000000000000000E0
:10084000008400040007002A004400650076006967
:10085000006300650049006E007400650072006668
:1008600000610063006500470055004900440073C3
:1008700000000050007B0039004400420037004671
:10088000003100460044002D00370045003700418C
:10089000002D0034003000300038002D00390033C6
:1008A00000360042002D0036004200410036004371
:1008B0000031003900410033003000380063007D12
:1008C00000000000001B0301636F6E6669677572AC
:1008D000652E6572676F646F782D657A2E636F6D14
:1008E0000005010980A101850319012AB70015013E
:1008F00026B700950175108100C0050C0901A10102
:10090000850419012AA002150126A002950175107F
:100910008100C005010906A1018505050719E02927
:10092000E7150025019508750181020507190029C1
:10093000EF1500250195F0750181020508190129BF
:1009400005950575019102950175039101C0050199
:100950000906A101050719E029E7150025019508F9
:10096000750181029501750881010507190029FFAC
:10097000150026FF00950675088100050819012954
:1009800005950575019102950175039101C0090254
:100990005200030100A0FA09040000010301010054
:1009A0000921110100012240000705810308000A06
:1009B00009040100010300000009211101000122C6
:1009C0006D000705820320000A0904020002FF00EF
:1009D00000000705830340000507050403400005E8
:1009E0001201100200000008EDFE071301000102D1
:1009F0000301040330000000160345007200670085
:100A00006F0064006F007800200045005A0000006D
:100A100008035A0053004100000004030904050FB5
:100A20003900021C100500DF60DDD88945C74C9CE9
:100A3000D2659D9E648A9F00000306B2004500189F
:100A400010050038B60834A909A0478BFDA07688A8
:100A500015B665000142000011241FBECFEFDAE099
:100A6000DEBFCDBF26E0AAEBB3E001C01D92AD35DD
:100A7000B207E1F713E0A0E0B1E0E6EEFEE602C067
:100A800005900D92AA3BB107D9F70E947D2C0C94DA
:100A900002370C940000E8EDF0E080818E7F8083C7
:100AA0001092E2001092DA001092E100A0EEB0E0A5
:100AB0008C9181608C9380818F77808319BCA7EDA6
:100AC000B0E08C918E7F8C9380818F7E808310929A
:100AD000200608952091E4003091E50095E6A901F3
:100AE0002091EC00822F817020FF06C08091E800E9
:100AF00080FF06C080E008952091E80022FD1AC022
:100B000080914606882389F0853089F08091EB003A
:100B100085FD0FC02091E4003091E5004217530796
:100B2000F9F29150E1F684E0089582E0089583E0BF
:100B3000089581E00895EF92FF920F931F93CF9352
:100B40007C018B010E946A05C82F882371F08C2FCD
:100B5000CF911F910F91FF90EF900895F701819130
:100B60007F018093F100015011090115110579F3FE
:100B70008091E80085FDF2CF8091E8008E77809328
:100B8000E8000E946A05882381F3C82FE0CF809196
:100B9000480687FF13C08091E80082FF06C080915D
:100BA000E8008B778093E80004C0809146068111AD
:100BB000F2CF0895809146068823D9F38091E8000A
:100BC00080FFF8CF8091E8008E77ECCF982F90933C
:100BD000E900242F762F50E0891731F07091EC0056
:100BE0002091ED005091F00021FD07C09F5F9730EC
:100BF00071F78093E90081E008953091EB003E7F2A
:100C00003093EB003091ED003D7F3093ED0030915B
:100C1000EB0031603093EB007093EC002093ED001B
:100C20005093F0002091EE0027FDE0CF80E0089582
:100C3000CF92DF92EF92FF920F931F93CF93DF93A8
:100C4000C8EDD0E088818F7E8883E7EDF0E0808179
:100C50008160808384E082BF81E080932006888168
:100C60008E7F888302EE10E0F80110821092DA0085
:100C700081EEC82ED12CF601108288818F7788836F
:100C800088818068888388818F7D888319BC1092D1
:100C9000460610924706109245061092440690EEC2
:100CA000E92EF12CF70180818B7F80838881816020
:100CB000888342E060E080E00E94E605F6018081E2
:100CC0008E7F8083F801808181608083808188604D
:100CD0008083F70180818E7F808388818061888313
:100CE000DF91CF911F910F91FF90EF90DF90CF9008
:100CF0000895FC0180914E0690914F068617970744
:100D0000A0F06115710529F48091E8008E77809339
:100D1000E80090E06115710551F4911108C08091CF
:100D2000E80082FF35C080E00895BC01F2CF8091D9
:100D300046068823C9F18530C9F18091E80083FD1A
:100D400031C08091E80082FDEACF8091E80080FF09
:100D5000E1CF8091F3002091F200382F61157105E9
:100D600019F02830310558F091E02830310509F0AC
:100D700090E08091E8008E778093E800CBCF84915B
:100D80008093F1003196615071092F5F3F4FE6CF9C
:100D900080914606882341F0853041F08091E8003B
:100DA00083FFBDCF81E0089582E0089583E0089538
:100DB000FC0180914E0690914F0686179707A0F090
:100DC0006115710529F49091E8009E779093E800F1
:100DD00090E06115710551F4911108C08091E8000F
:100DE00082FF34C080E00895BC01F2CF80914606B6
:100DF0008823C1F18530C1F18091E80083FD30C0C6
:100E00008091E80082FDEACF8091E80080FFE1CF89
:100E10008091F3002091F200382F6115710519F0CF
:100E20002830310558F091E02830310509F090E084
:100E30002091E8002E772093E800CBCF819180931A
:100E4000F100615071092F5F3F4FE7CF8091460657
:100E5000882341F0853041F08091E80083FFBECFC8
:100E600081E0089582E0089583E0089508958091D7
:100E70002306089520914606243099F423E0209318
:100E8000E90070E050E040E00E949B05882321F0DB
:100E900010921E0610921F068091E8008E778093B4
:100EA000E800089520911C012223C9F02091F60545
:100EB00027FF15C0E62FE695E695E695EE31D8F4C6
:100EC000E80FF92FF11D677021E030E001C0220F1B
:100ED0006A95EAF720958281282322830895FC01F0
:100EE000329608962191621303C0DF0111971C927C
:100EF000E817F907B9F7089520911C012223C1F0E2
:100F00002091F60527FF14C0E62FE695E695E695B5
:100F1000EE31F8F4E80FF92FF11D677021E030E0B1
:100F200001C0220F6A95EAF78281822B828308959D
:100F3000FC0132962FEF30E04191641751F02F3FC2
:100F400019F4411101C0232F3F5F3630A9F72F3F1D
:100F500009F40895820F911D27FD9A95FC01628383
:100F60000895CF92DF92EF92FF926C01EE24FF245E
:100F700020E0C114D104E104F10419F0C701B60165
:100F800020E1C72ED82EE92EFF24C114D104E1049C
:100F9000F10419F0285FC701B6016B017C0154E030
:100FA000F694E794D794C7945A95D1F7C114D10415
:100FB000E104F10419F02C5FC701B6016B017C015B
:100FC00042E0F694E794D794C7944A95D1F7C114B8
:100FD000D104E104F10419F02E5FC701B601969522
:100FE000879577956795672B682B692B09F02F5F9D
:100FF000822FFF90EF90DF90CF9008958091D505DC
:1010000081111092D50508958091D4059091D30552
:10101000892B9091D205892B8093BA039091D505A5
:101020009923A1F0892B8093BA0380911C01882316
:1010300041F18091F60587FF24C08EE1ECEBF3E0EF
:1010400090E0815000F591110E94FE07E091F805B3
:10105000F091F9053097E1F080911C01882359F057
:101060008091F60587FF07C08091BA038093BB0388
:1010700085E08093BA030280F381E02D8AEB93E050
:10108000099486E0DBCF21912223D9F29F5FD9CF4B
:101090000895E92FEE0FE90FEE0F8E0F982F97703E
:1010A00086958695869525E0829FF0011124E65667
:1010B000FA4F50E040E080E0219130E0092E02C07C
:1010C000369527950A94E2F721703327042E01C044
:1010D000220F0A94EAF7822B4F5F5F4F453051058C
:1010E00059F70895E92FEE0FE90FEE0F8E0F982FA5
:1010F000977041E001C0440F9A95EAF7869586956E
:10110000869595E0899FF0011124E656FA4F30E06C
:1011100020E070E05191DF011197CB01022E02C057
:10112000969587950A94E2F78170819585278423A7
:1011300085278C932F5F3F4F2530310559F7089550
:101140008091990590916805981301C008958F5F6B
:101150008770FACF882341F080959091D305892339
:101160008093D3050C9404080895882339F0909156
:10117000D305982B9093D3050C94040808958823E5
:1011800041F080959091D40589238093D4050C94E7
:1011900004080895882339F09091D405982B9093F2
:1011A000D4050C9404080895209148053091490510
:1011B0002817390771F09093490580934805E0910D
:1011C000F805F091F905309721F00084F185E02DC4
:1011D000099408952091460530914705281739074D
:1011E00071F09093470580934605E091F805F091E2
:1011F000F905309721F00680F781E02D09940895D4
:101200001092D3051092D2050E94040890E080E06D
:101210000E94EA0890E080E00C94D4086093D60520
:101220007093D7058093D8059093D9050C94000945
:10123000882379F19CEF980F913A38F4682F8AEB64
:1012400093E00E9452070C94040890E2980F9830A3
:1012500088F4877021E030E0A90102C0440F551FD7
:101260008A95E2F7CA0180959091D40589238093ED
:10127000D405E9CF9BE5980F933020F490E080E00F
:101280000C94EA08885A873120F490E080E00C94AE
:10129000D4080895CF93C82F882309F467C08CEF32
:1012A0008C0F813AC0F580911C01882311F1809147
:1012B000F60587FF1EC0EC2FE695E695E695F0E073
:1012C000E654FC4F828190E04C2F477021E030E0E3
:1012D00002C0220F331F4A95E2F782239323892B02
:1012E00091F06C2F8AEB93E00E9452070E94040851
:1012F0000AC0ECEBF3E082EC93E02191C21789F392
:101300008E179F07D1F76C2F8AEB93E00E947C0722
:10131000CF910C94040880E28C0F883068F4C77079
:1013200021E030E001C0220FCA95EAF78091D40590
:10133000822B8093D405ECCFEBE5EC0FE33040F447
:10134000F0E0EC55FD4F808190E0CF910C94EA08DD
:10135000C85AC73158F4EC2FF0E0EE0FFF1FE955E3
:10136000FD4F80819181CF910C94D408CF91089545
:10137000E091F805F091F905309721F00190F081A6
:10138000E02D099480E00895FA01811101C0FB016C
:1013900009948033910538F5880F991F880F991F9C
:1013A000FC01E45CFE4F5281338180818370E181D6
:1013B000A82FB0E070E9879FC001112482509C4F94
:1013C000E80FF92FF11DB4976083FC01E50FF11DC3
:1013D000B4974083830F911DFC01B4972083A450E0
:1013E000BC4F81E08C930895FF920F931F93CF938E
:1013F000DF93182F062FF42ED0E0C0E02F2D402FC2
:10140000612FCE010E94C9092196C033D105B1F7E1
:10141000DF91CF911F910F91FF9008958091540615
:10142000837011F410920F01809154068C7F8160BB
:101430008093540608950C94F4090C94C9090F93F1
:101440001F9310E0F801EE0FFF1FE75DFC4F908146
:10145000905797FD9195000F111FF801E65DFC4F25
:1014600000810052110B2003F001219FF00D112487
:1014700008E310E0091B110997FD13954003900143
:10148000419F300D1124E20FF31F9F01220F331FE4
:101490002E0F3F1F37FF02C021583F4F220F232F2F
:1014A000221F330B620F1F910F9108950F931F930B
:1014B000522F10E0F801EE0FFF1FE65DFC4FA081F8
:1014C000A052BB0B9D015203F001539FF00D11245C
:1014D000000F111FD801A75DBC4F0C910057110BD5
:1014E00040039001419F300D11242E0F3F1F37FF05
:1014F00002C0215C3F4F96E0359527959A95E1F71C
:10150000620F1F910F9108950F931F93522F10E0B8
:10151000F801EE0FFF1FE65DFC4FA081A052BB0B50
:101520009D015203F001539FF00D1124000F111F74
:10153000D801A75DBC4F0C910057110B40039001DF
:10154000419F300D11242E0F3F1F37FF02C021583D
:101550003F4F220F232F221F330B620F1F910F913A
:101560000895EF920F93972F23E0029FB00111246B
:10157000759567956E0D792F0F91EF900895322F25
:1015800050E0FA01EE0FFF1FE65DFC4F9081905294
:1015900097FD9195440F551FFA01E75DFC4F20819F
:1015A000231B330B290F311D97FD3A95620F0895C8
:1015B000E42FF0E0EE0FFF1FE65DFC4F6081621B41
:1015C0000895E42FF0E0EE0FFF1FE75DFC4F608110
:1015D000621B0895622F0895E42FF0E0EE0FFF1FC5
:1015E000E75DFC4F408134EE439F412D1124E82FED
:1015F000F0E050E0445E5F4FDA01A21BB1099D01AB
:10160000B7FF03C031952195310993E0220F331FB5
:101610009A95E1F7AF01421B530B9A0157FD20E069
:10162000582F259F212D1124822F0895E42FF0E0BB
:10163000EE0FFF1FE75DFC4F408134EE439F412DCD
:101640001124E72FF0E050E0445E5F4FDA01A21B67
:10165000B1099D01B7FF03C031952195310993E090
:10166000220F331F9A95E1F7AF01421B530B9A01EA
:1016700057FD20E0279F212D1124722F0895FC0192
:101680009B01009729F480E077FF2BC080E8089544
:10169000AC0197FF04C044275527481B590BB901DB
:1016A000640F751F37FD10C0241B350BC901A5E061
:1016B000880F991FAA95E1F70E94343080E2861BBB
:1016C000F7FF0FC081950895CB0165E0880F991F42
:1016D0006A95E1F7BA01621B730B0E94343080E611
:1016E000EECF0895EF920F93CF93DF93D72FC82FAC
:1016F000C9010E19BA010E943F0B602F681B7D2F94
:101700008C2FDF91CF910F91EF9008950F93CF938E
:10171000DF93D72FC82FC901BA010E943F0B682F52
:10172000600F7D2F8C2FDF91CF910F910895EF9255
:101730000F931F93CF93DF93D62FC72F182FC90175
:101740000E19010FBA010E943F0B081B202F219F89
:10175000212D1124822F6D2F7C2FDF91CF911F918E
:101760000F91EF900895EF920F931F93CF93DF9314
:10177000D62F172FC82FC9010E19070FBA010E94C3
:101780003F0B702F781B719F712D11246D2F8C2FA3
:10179000DF91CF911F910F91EF9008950F931F93B9
:1017A000CF93DF93D62FC72F182FC901212F201BCE
:1017B000022FBA010E943F0B982F990F990F891B96
:1017C000800F282F219F212D1124822F6D2F7C2FF8
:1017D000DF91CF911F910F9108950F931F93CF9396
:1017E000DF93D62F172FC82FC901272F201B022FB9
:1017F000BA010E943F0B982F990F990F782F791BF0
:10180000700F719F712D11246D2F8C2FDF91CF914F
:101810001F910F910895E82F86FDE0952E2F2F70D0
:1018200086FD2F5FE695E695E695E670F0E0EC5CC8
:10183000FE4F9181929F902D212D112492959F70A2
:101840002295207F922B2081920F87FD919580E831
:10185000890F0895AC018230910508F408959FEF37
:10186000413E8EE1580740F49A0195E03695279560
:101870009A95E1F798E0920F61E0E62FE90FFF27D4
:10188000FF1F9F0135952795822F229FF001239FEF
:10189000F00DF00D11244E175F0738F49FEF920FF3
:1018A000961758F78FEF860F08952F3FE9F361E001
:1018B000620FF6CF0F93CF93DF93D72FC82F47FD3B
:1018C000419588E390E0841B910947FD9395889F9B
:1018D000B001899F700D700D1124229FC001239FBC
:1018E000900D900D1124860F971F0E942A0C982F9F
:1018F000990F890F682F600F7D2F8C2FDF91CF916B
:101900000F91089530E020E0869F212D969F200DB5
:10191000311D1124C9010895AF92BF92CF92DF9279
:10192000FF920F931F93CF93DF93362F472FE82F0C
:10193000F0E0E457FC4F71110DC06491762F862FB3
:10194000DF91CF911F910F91FF90DF90CF90BF90CB
:10195000AF900895C72FD0E02491F22E022F10E00F
:1019600056E0659FC0011124EFEFF0E0BF010E9437
:101970002030832F90E0880F991F35E5369FD001E6
:10198000379FB00D11248A1B9B0B982F990F980F2E
:101990006F01CC1ADD0AC09ED001C19EB00DD09E51
:1019A000B00D11248B2F949FA0011124452F552792
:1019B0006F01C41AD50AC09EA001C19E500DD09ED1
:1019C000500D11245F01A91AB108AC9E6001AD9EB3
:1019D000D00CBC9ED00C1124CD2CDD24EC19FD09BB
:1019E000E09FE001E19FD00DF09FD00D1124ED2F7D
:1019F00062307105A1F048F46115710569F061303C
:101A0000710589F0EB2F852F07C06430710571F0E7
:101A100088F066307105B1F76E2F722F91CFE22FEB
:101A20002B2F8D2FF9CFE22F252FF6CFEB2F822FE3
:101A30002D2FF2CF2B2F8F2DE52FEECF9F92AF9230
:101A4000BF92CF92DF92EF92FF920F931F93CF93AB
:101A5000DF936C0180911D01C82FCC0FCC0FC80FF4
:101A600015E01C0FB12E113310F030E3B32E60914E
:101A700058066695669580915006909151060E9491
:101A8000820CF82E80E48F0D0E940B0C90E8A92E9A
:101A9000A80E8F2D0E940B0C20E8922E980ED0E0FD
:101AA000CB1580F081E0103308F080E0DF91CF911A
:101AB0001F910F91FF90EF90DF90CF90BF90AF906C
:101AC0009F900895FE01E757FC4F808190911E0181
:101AD0008923A1F0609155067091560680915706B2
:101AE000EF2C0C2F292D4A2DF60109950E948C0C04
:101AF000462F282F672FCE010E941D0A2196D0CF96
:101B00007F928F929F92AF92BF92CF92DF92EF928D
:101B1000FF920F931F93CF93DF935C0180911D0180
:101B2000C82FCC0FCC0FC80F15E01C0FF12E1133AE
:101B300010F030E3F32E60915806669580915006C0
:101B4000909151060E94820C782ED0E0CF1590F033
:101B500081E0103308F080E0DF91CF911F910F9169
:101B6000FF90EF90DF90CF90BF90AF909F908F90BD
:101B70007F900895FE01E757FC4F808190911E01F0
:101B80008923C9F1CE01880F991F8B529D4FFC010B
:101B9000EC5AFF4F2081422F4057550B6A018B5A58
:101BA0009F4FFC018081282F2052330B4901449F15
:101BB0009001459F300D300D1124889CC001899CF7
:101BC000900D900D1124820F931F0E942A0C082F54
:101BD000609155067091560680915706E72C940146
:101BE000A601F50109950E948C0C462F282F672F1E
:101BF000CE010E941D0A2196A9CFCF92DF92EF92CB
:101C0000FF920F931F93CF93DF937C0180911D016F
:101C1000C82FCC0FCC0FC80F15E01C0FD12E1133DD
:101C200010F030E3D32E60915806669580915006EF
:101C3000909151060E94820CC82ED0E0CD1568F01C
:101C400081E0103308F080E0DF91CF911F910F9178
:101C5000FF90EF90DF90CF900895FE01E757FC4F83
:101C6000808190911E01892311F1CE01880F991F67
:101C70008B529D4FFC01EB5AFF4F20812052330BBA
:101C80008C5A9F4FFC0140814057550B609155067F
:101C900070915606809157060C2DF70109950E9408
:101CA0008C0C462F282F672FCE010E941D0A2196EB
:101CB000C5CFDF92EF92FF920F931F93CF93DF93E5
:101CC0007C0180911D01C82FCC0FCC0FC80F15E0EF
:101CD0001C0F012F113308F000E360915806669540
:101CE000669580915006909151060E94820CD82EE4
:101CF000D0E0C01760F081E0103308F080E0DF91A1
:101D0000CF911F910F91FF90EF90DF900895FE010A
:101D1000E757FC4F808190911E01892391F06091DB
:101D2000550670915606809157062D2D4C2FF701C0
:101D300009950E948C0C462F282F672FCE010E94F8
:101D40001D0A2196D6CF9091F60592FF06C0282F46
:101D500028712830F9F4877F846093FF06C0282F0C
:101D600028712831F1F4877E84612091F70520FFE6
:101D700006C0382F38713830D9F4877F816021FF51
:101D800006C0282F28712831D1F4877E816194FD07
:101D9000877E0895282F24712430F9F68B7F886080
:101DA000DCCF282F2471243101F78B7E8861DDCFB1
:101DB000382F3171313019F78E7F8860E0CF282FAE
:101DC0002171213121F78E7E8861E1CFCF93DF939E
:101DD000972F70E026E0929F600D711D1124FB018A
:101DE00034E5839FE00DF11D1124EE0FFF1FED5828
:101DF000FA4FC591D491CE01C238D105B9F1E8F5B9
:101E0000C133D10509F499C050F5C932D10509F49F
:101E10008DC0CA32D10509F497C0C11542E5D40777
:101E200008F0B6C0C11521E5D20708F02EC1C83EA2
:101E3000D10508F09DC0C03ED10568F5C83AD1056E
:101E400008F089C0C53AD10508F0F7C0C130D10506
:101E500011F1209709F443C02497E8F440C0C5333A
:101E6000D10509F45CC0C933D105B9F62091F60556
:101E7000237089F080EE90E00EC0C33ED10591F151
:101E800068F4C03ED105F9F0C23ED10531F620918B
:101E9000F60522FD20C0DF91CF910895C63ED10501
:101EA00061F1C73ED10581F1C43ED10509F0B5CF3E
:101EB0002091F70521FFEFCF8091F60584FD0FC03B
:101EC00087EE90E0E8CF2091F60520FD0EC130911D
:101ED000F70530FFE0CF83EE90E024FFDCCF90E009
:101EE00080E0D9CF2091F60522FD02C13091F7059F
:101EF00030FDC0CF24FFCFCFF2CF2091F60523FFD6
:101F0000CACF24FDECCFDCCF2091F60523FDF3C032
:101F10003091F70531FFEECF84EE90E0BCCF2091F9
:101F2000F60525FFB8CF89E290E0B5CF2091F60500
:101F300025FFB1CF85E390E0AECF2091F60526FFD7
:101F4000AACF8AE290E0A7CF2091F60526FFA3CF83
:101F500081E390E0A0CFCF3BD10508F6C85AD0E08E
:101F6000CC0FDD1FC955DD4F88819981946493CFD3
:101F7000C11530E5D30708F06CC0C11540E4D407A3
:101F800008F063C0DA95C115DF4108F484CFA7CF0C
:101F9000C11536E5D30718F5C11545E5D40708F096
:101FA0008AC0C11584E5D80708F080C09C2F96959B
:101FB0009695AE0143705527C115D34508F46AC004
:101FC00021E030E002C0220F331F4A95E2F740E2E1
:101FD000949FC0011124822B932B9A685CCFC1156A
:101FE0003AE5D30778F4C11549E5D40708F06DC088
:101FF000C11588E5D80708F472CF9C2F8827806F19
:10200000906A49CFC1159BE5D90708F468CFCE0186
:10201000C1152CE5D20708F465C090568115904291
:1020200008F05DCF8D2F8F710E94A30E90E0982F46
:10203000882788279F718C2B46C0C55AD0E0CC5585
:10204000DD4F888190E0906426CFCE019F70906A2A
:1020500022CF9E01E4E036952795EA95E1F72370BB
:102060008C2F86958695837040E2849FC001112451
:10207000922BC37021E030E002C0220F331FCA95BB
:10208000E2F7822B932B9C6806CF9C2F8827816FC9
:10209000906A01CF21E030E002C0220F331F4A9541
:1020A000E2F740E2949FC0011124EBCF9C2F8827D8
:1020B000846F906AF0CE8C2F0E94A30E90E0982F30
:1020C000882788279F719062E6CE8C2F8F700E94A0
:1020D000A30E34E0D695C7953A95E1F7CF709C2FC3
:1020E0009069D9CE99279066D6CE89E390E0D3CE79
:1020F00082EE90E0D0CE86EE90E0CDCEBF92CF9231
:10210000DF92EF92FF920F931F93CF93DF938C0197
:10211000C0901906D0901A06E0901B06F0901C069D
:102120008091D6059091D705A091D805B091D90599
:10213000C82AD92AEA2AFB2ACFE1D0E0BC2ED7014F
:10214000C6010C2E04C0B695A795979587950A945D
:10215000D2F780FD0EC0219788F7B12C8B2DDF912F
:10216000CF911F910F91FF90EF90DF90CF90BF9094
:102170000895B8018C2F0E94E60E019761F3EECF0F
:10218000CF93DF93EC010E947E10BE01DF91CF91CF
:102190000C94E60E0E94C010292F2F7092959F700C
:1021A00092509E3078F4E92FF0E0EC5FF84C0C94FC
:1021B0004830803F19F020F4883E20F481E00895F3
:1021C000843FE1F380E00895883EC0F3813FD1F77A
:1021D000F5CF822F8695869586950895CF93DF93C8
:1021E0009C013A9521153F4168F5EC01CC27D1704F
:1021F000DC01AA27B270AC01442754709C0122274D
:10220000387094FF11C080E1CD2B09F480E0AB2B36
:1022100009F08062452B09F08064232B09F0806867
:10222000FB01DF91CF91099481E0CD2B09F480E08F
:10223000AB2B09F08260452B09F08460232B81F3DE
:102240008860EECFDF91CF910895CF93DF93EC01BB
:102250000E9418096AEA78E0CE01DF91CF910C94D0
:10226000EE10CF93C82F65EB78E00E94EE108C2F14
:10227000CF910C944A099F92AF92BF92CF92DF9276
:10228000EF92FF920F931F93CF93DF9320E9289F44
:10229000E001299FD00D1124C455DF4F10E000E06C
:1022A000FE0164913196749131968491962F972B0B
:1022B000982BC1F420E040E060E0C8010E941D0AB4
:1022C0000F5F1F4F23960033110551F7DF91CF9118
:1022D0001F910F91FF90EF90DF90CF90BF90AF9044
:1022E0009F9008950E948C0C962EB72EA82E609178
:1022F000570670E090E080E00E94073620E030E072
:102300004FE753E40E9466356B017C016A2D70E053
:1023100090E080E00E940936A70196010E94953660
:102320000E94D835A62E692D70E090E080E00E94D2
:102330000936A70196010E9495360E94D835962E3F
:102340006B2D70E090E080E00E940936A7019601B5
:102350000E9495360E94D8352A2D492DAECF40E0F7
:1023600060E080E00E941B0A81E0809321060895CE
:1023700027982F98089526982E98089525982D9897
:10238000089556985E980895279A2F9A0895269A48
:102390002E9A0895259A2D9A0895CF92DF92EF9262
:1023A000FF92CF936B017C010E94B107C82F0E945E
:1023B000C1110E94BE110E94BB110E94B811C150F0
:1023C000C73040F4EC2FF0E0EE5EF84C0C9448304F
:1023D0000E94CA11C701B601CF91FF90EF90DF9024
:1023E000CF9008950E94CA110E94C711F3CF0E9496
:1023F000CA110E94C411EECF0E94CA110E94C711D7
:10240000F8CFCF92DF92EF92FF92CF93DF9300D07D
:1024100000D0CDB7DEB70E94CD116B017C01809159
:102420001D06882321F080911E06811115C0C092DF
:102430001906D0921A06E0921B06F0921C060E9422
:1024400000090F900F900F900F90DF91CF91FF90A8
:10245000EF90DF90CF900895198282E08A83C701C0
:10246000B6010E94B1078B838EEF8C8364E0CE01AE
:1024700001960E943A07DBCF0F931F9341E050E093
:1024800060E070E004C0440F551F661F771F8A95F7
:10249000D2F7CB01BA016095709580959095009127
:1024A000190610911A0620911B0630911C06602314
:1024B0007123822393231F910F910C940112909109
:1024C000D105809589238093D105282F277071F439
:1024D000282F082E000C330B9217130639F0859520
:1024E000859585950E943C121092D10508950F9311
:1024F0001F9341E050E060E070E004C0440F551FBE
:10250000661F771F8A95D2F78091190690911A0657
:10251000A0911B06B0911C068A019B01082B192B68
:102520002A2B3B2BC901B8011F910F910C9401126A
:1025300084B1807F84B985B1807F85B98AB1837F7A
:102540008AB98BB1837F8BB93E984698089580B342
:102550008C7080BB81B3836F81BB0895CF9384E07F
:1025600090E00E94BB34C82F81E290E00E94BB340F
:10257000982F8C2FCF910895CF93DF9300D00F9297
:10258000CDB7DEB790914606943019F589837B83E9
:102590006A8382E08093E9008FEF9091E800815098
:1025A00095FD06C095ED9A95F1F700008111F5CFE4
:1025B0008091E80085FF0DC050E040E063E070E0EE
:1025C000CE0101960E949B058091E8008E77809352
:1025D000E8000F900F900F90DF91CF910895209118
:1025E0004606243021F4BC0184E00C94BC1208950A
:1025F000BC0183E00C94BC12CF93DF93EC0180917B
:1026000046068430B9F580911C018823B1F1809190
:10261000F60587FF32C060E282E08093E9008FEF29
:102620009091E800815095FD06C095ED9A95F1F7DF
:1026300000008111F5CF8091E80085FF1BC08091DB
:102640001C0170E050E040E0811104C050E040E027
:1026500068E070E0CE010E949B058091E8008E77D3
:102660008093E80080E2FE01A4E2B6E001900D92C2
:102670008A95E1F7DF91CF91089568E081E0CDCFB1
:10268000CF93C82F0E944A09C93349F42FEF87EE30
:1026900093E0215080409040E1F700C000008C2F73
:1026A000CF910C941809CF93DF93809159059091A5
:1026B0005A05892B59F120915B0530915C054FB784
:1026C000F8948091DA059091DB05A091DC05B0913A
:1026D000DD054FBF821B930B20910D0130910E0140
:1026E00028173907B0F4C0915905D0915A05D26026
:1026F000CE010E943111CE010E94251110925C057D
:1027000010925B0510925A0510925905DF91CF91F6
:102710000895809159050E944013F0CFFF920F93C6
:102720001F93CF93DF93E82FF0E0E45FFC4FF4902A
:10273000C82FC695C695C695D0E0FE01E450FD4F62
:102740000491877010E0082E02C0159507950A9431
:10275000E2F701701127C451DD4FFE01C491D0E0B2
:1027600002C0D595C7958A95E2F7C170DD2701159E
:10277000110519F081EE0E944A09209719F086EEA2
:102780000E944A098F2D0E944013CD2B19F086EE2E
:102790000E941809012B41F081EEDF91CF911F912A
:1027A0000F91FF900C941809DF91CF911F910F9119
:1027B000FF900895FF920F931F93CF93DF938C01A7
:1027C0008AE0F82EF8018491882309F44BC0813007
:1027D00009F044C0E8012196FE018491813049F45A
:1027E0002196FE0184910E9440138E010F5F1F4FBE
:1027F000E9CF823039F4E8012296FE0184910E94EB
:102800004A09F3CF833039F4E8012296FE0184911E
:102810000E941809EACF843041F7E8012296FE01B0
:10282000249190E080E0FE0131962053330B2A3052
:10283000310548F00197C8F2EFE9FFE03197F1F771
:1028400000C00000F7CFF89EA001F99E500D1124A2
:10285000C901840F951F2491EF01E5CF0E948E13CB
:10286000E801C3CFDF91CF911F910F91FF900895A1
:10287000EF92FF920F931F93CF93DF930E94C111AA
:102880000E94BE110E94BB110E94B81188E8E82E78
:10289000F12C8FEF90E0F701918380830AE810E03C
:1028A000F80191838083CCE8D0E0998388830E94EB
:1028B000CA11FFEF20E782E0F15020408040E1F7AD
:1028C00000C000000E94C7119FEFE0E7F2E09150C6
:1028D000E040F040E1F700C000000E94C4112FEF7B
:1028E00080E792E0215080409040E1F700C0000076
:1028F0000E94BE11EFEFF0E722E0E150F0402040EF
:10290000E1F700C000000E94BB118FEF90E7E2E00A
:1029100081509040E040E1F700C000000E94B811F3
:102920008091E4058770FFEF8F9FC001112495957A
:102930008795959587959927F70191838083F8016D
:1029400091838083998388830E94C1110E94BE1164
:102950000E94BB11DF91CF911F910F91FF90EF90DB
:102960000C94B8116FEE7EEF90E080E00E94FD3491
:1029700060E082E090E00E94DF3460E083E090E07D
:102980000E94DF341092D6051092D7051092D80518
:102990001092D90560E084E090E00E94DF3460E0AE
:1029A00081E290E00E94DF3460E085E090E00E94E8
:1029B000DF3460E086E090E00E94DF346FEF87E074
:1029C00090E00E94DF3440E050E0BA0188E090E0FF
:1029D0000E94F13460E08DE090E00E94DF3440E03E
:1029E00050E0BA0188E190E00E94F13460E087E1B4
:1029F00090E00E94DF3440E050E0BA018CE190E0CA
:102A00000E94F13460E080E290E00E94DF34109296
:102A1000E4051092E5051092E6051092E70584E0C2
:102A200080618093E4054091E4055091E505609153
:102A3000E6057091E7058FE090E00E94F13440E0F8
:102A400050E0BA0183E190E00C94F1341092D40587
:102A500080911C01ECEBF3E0882359F08091F6059E
:102A600087FF07C08EE1DF011D928A95E9F70C947C
:102A7000000986E0F8CF1F93CF93DF93CDB7DEB781
:102A8000AA970FB6F894DEBF0FBECDBF88E496E0DC
:102A90002091F100FC012193CF01F6E080359F07E2
:102AA000B9F780914906893009F444C018F582309D
:102AB00009F4B7C0833009F46CC0813031F58091DE
:102AC0004806813A11F58091E800877F8093E800FD
:102AD00080914C0690914D06892B41F560E284E28D
:102AE00096E070E00E94D8068091E8008B77809392
:102AF000E8000BC08B3009F469C008F481C082344F
:102B000009F4A0C0853409F4BAC08091E80083FFBD
:102B100065C280914806909149069A3008F05EC2DD
:102B2000E92FF0E0E75EF84C0C94483060E090E06C
:102B300080E0D7CF80914806813239F780914C06EA
:102B400090914D06029708F78091E800877F809367
:102B5000E8008091E80082FF17C09091F300809117
:102B6000F200029729F48091F1008B7F813021F4EB
:102B70008091F100809323068091E8008B77809309
:102B8000E8000E94C705C1CF809146068111E1CFC0
:102B9000BCCF80914806813A09F0B7CF80914C06AE
:102BA00090914D06892B09F0B0CF8091E800877F86
:102BB0008093E8008091E80080FFFCCF80911C01A9
:102BC0008093F1008091E8008E77D9CF80914806FC
:102BD000813209F09ACF80914C0690914D06892B55
:102BE00009F093CF8091E800877F8093E8000E94EE
:102BF000C70580914A0680931C010E94261585CF47
:102C000080914806813209F080CF8091E800877F6B
:102C10008093E8000E94C70580914B0680932206AE
:102C200074CF80914806813A09F06FCF8091E80017
:102C3000877F8093E8008091E80080FFFCCF80913F
:102C40002206BECF80914806803C09F05ECF80917D
:102C50004C0690914D06029739F580914A06909165
:102C60004B06892B09F58091E800877F8093E80067
:102C70006BE170E085EC98E00E94790682CF80914C
:102C80004806803C09F041CF80914C0690914D065A
:102C9000079751F48091E800877F8093E80062EB0A
:102CA00070E083E198E0E8CF8091EB008062809350
:102CB000EB002BCF803899F0823809F08FC18091DA
:102CC0004C068F70873008F089C18093E9008091AD
:102CD000EB0085FB882780F91092E90006C08091FF
:102CE000440690914506911182609091E800977F8B
:102CF0009093E8008093F1001092F1008091E80039
:102D00008E7768C1882309F456C1823009F066C104
:102D100080914A06811159C180914C068F702FEF26
:102D2000280F263008F05AC18093E9002091EB006B
:102D300020FF4BC1933031F48091EB00806280938F
:102D4000EB0043C19091EB0090619093EB0021E088
:102D500030E001C0220F8A95EAF72093EA00109232
:102D6000EA008091EB008860EACF811137C11091B1
:102D70004A061F778091E3008078812B8093E300DF
:102D80008091E800877F8093E8000E94C7058091CA
:102D9000E80080FFFCCF8091E30080688093E3002F
:102DA00082E0111183E08093460618C1805882307A
:102DB00008F014C180914A0690914B068C3D23E0A7
:102DC0009207A1F583E08A838AE289834FB7F8945A
:102DD000DE01139620E03EE051E2E32FF0E0509355
:102DE0005700E49120FF03C0E295EF703F5FEF7062
:102DF0008E2F90E0EA30C0F0C7968D939D932F5FA1
:102E0000243159F74FBF8091E800877F8093E80015
:102E10006AE270E0CE0101960E94D8068091E80037
:102E20008B778093E800DAC0C096E7CF40914C06DC
:102E300050914D06292F33272330310569F1A0F435
:102E40002130310509F46CC062E570E08EE899E04C
:102E50002230310509F0C2C02091E800277F20937D
:102E6000E8000E947906DACF2132310509F440C02A
:102E70002232310509F448C02F30310509F0AEC0C7
:102E8000E0E2FAE0E4916E2F70E08EE19AE06115E5
:102E9000710509F4A3C0E0CF992781309105C1F0F5
:102EA000009771F082309105D9F0039709F096C030
:102EB000E2EFF9E0E4916E2F70E082EF99E0E7CF66
:102EC000EAE1FAE0E4916E2F70E08AE19AE0DFCF68
:102ED000E0E1FAE0E4916E2F70E080E19AE0D7CF74
:102EE000E8EFF9E0E4916E2F70E088EF99E0CFCF42
:102EF00041155105D1F04130510509F06FC069E02D
:102F000070E089EB99E0A8CF4115510599F0413067
:102F1000510509F063C06DE670E081EE98E09CCF4A
:102F200062E170E080EE99E097CF69E070E080EABE
:102F300099E092CF60E470E08EE499E08DCF803824
:102F400009F04CC08091E800877F8093E800809171
:102F500047068093F100D2CE811140C010914A06FD
:102F60001230E0F58091E800877F8093E8001093AD
:102F700047060E94C705112311F084E005C0809127
:102F8000E30087FDFACF81E08093460642E061ECE2
:102F900081E00E94E60542E261EC82E00E94E605E3
:102FA00042E361EC83E00E94E60542E360EC84E0EA
:102FB0000E94E60513C080914A06813079F481E0D1
:102FC000933009F080E0809345061092E9008091EB
:102FD000E800877F8093E8000E94C7058091E800A1
:102FE00083FF0AC08091E800877F8093E80080918A
:102FF000EB0080628093EB00AA960FB6F894DEBFD8
:103000000FBECDBFDF91CF911F9108950F931F93F6
:10301000CF93DF93082F000FEB0114E21093E80326
:10302000E9EEF3E0DE018D91819383E0E93FF8075B
:10303000D1F724E630E041E150E068EE73E0802F04
:103040000E94F52F105F6096143B41F7DF91CF91FE
:103050001F910F9108958091FC03882329F06EEF52
:1030600073E084E70E9406181092FC038091FD0330
:10307000882329F06EE874E087E70E940618109212
:10308000FD030895E8EEF3E06083418324E630E039
:1030900042E050E0BF01880F0C94F52F0F931F936F
:1030A000CF93DF93082FE62FF0E0EE5BFA4F80819D
:1030B000882379F082E1689FE0011124C25EDA4F33
:1030C00010E04991612F802F0E9442181F5F12313A
:1030D000C1F7DF91CF911F910F910895CF93DF93A7
:1030E000C82F4BE06DEF0E94421840E06AE08C2F41
:1030F0000E9442188FE39CE90197F1F700C000009D
:1031000040E060E08C2F0E94421840E061E08C2F8C
:103110000E94421840E066E08C2F0E94421840E076
:103120006DEF8C2F0E944218D0E040E06D2F8C2F65
:103130000E944218DF5FD231C1F740E06D2F8C2F23
:103140000E944218DF5FD432C1F740E06D2F8C2F10
:103150000E944218DF5FD43BC1F74BE06DEF8C2F2C
:103160000E94421841E06AE08C2F0E94421840E021
:103170006DEF8C2FDF91CF910C9442186F927F925C
:103180008F929F92AF92BF92CF92DF92EF92FF9277
:103190000F931F93CF93DF930E94402F84E70E94E9
:1031A0006E1887E70E946E186CE3E62E61E0F62E3B
:1031B000D12CC12C72E1772EE8E08E2E912CAA241E
:1031C000A394B12C66246394F701418150E0CA01B5
:1031D000849702810452110BC381C452DD0BF601A6
:1031E000EE0FFF1FEE0FFF1FE45CFE4F20812370E8
:1031F00030E0FC0197FD379643E0F595E7954A9559
:10320000E1F7729EA001739E500D1124425E5A4F49
:10321000E40FF52FF11DB4010E943430A50101C067
:10322000440F8A95EAF78081842B8083F80117FD8B
:10323000379693E0F595E7959A95E1F7729EC00170
:10324000739E900D1124825E9A4FE80FF92FF11DA5
:10325000C801B4010E943430A50101C0440F8A9511
:10326000EAF78081842B8083FE01D7FD379683E0C7
:10327000F595E7958A95E1F7729EC001739E900DD2
:103280001124825E9A4FE80FF92FF11DCE01B4018F
:103290000E943430A50101C0440F8A95EAF780816D
:1032A000842B80832E5B3A4FF9016082FFEFCF1AA7
:1032B000DF0A84E0E80EF11CE0E3CE16D10409F049
:1032C00083CF60E084E70E944E1861E087E7DF91DA
:1032D000CF911F910F91FF90EF90DF90CF90BF9013
:1032E000AF909F908F907F906F900C944E181F938B
:1032F000CF93DF93EC01FC01E757FC4F80816823FB
:10330000A1F00E94D130182F0E94D130612F782F68
:10331000809157060E948C0C462F282F672FCE01D4
:10332000DF91CF911F910C941D0ADF91CF911F91D6
:103330000895DF92EF92FF920F931F93CF93DF9345
:103340008C01FC01E757FC4F8081682381F1D0900C
:103350005606D0915706C0915506EC2EF12C0E94CE
:10336000D130282FC7018C549F4F68E671E00E942E
:1033700034308E199F0997FD0396959587959595FD
:10338000879523706C2F289F600D11247D2D8D2F24
:103390000E948C0C462F282F672FC801DF91CF91F8
:1033A0001F910F91FF90EF90DF900C941D0ADF9119
:1033B000CF911F910F91FF90EF90DF90089545E01E
:1033C00050E06CE170E084E596E00C94CF3480919D
:1033D0005406982F969596959F5F9F7383709931A9
:1033E00048F4990F990F892B8093540610920F017E
:1033F0000C94DF198460F8CF809154068450809338
:103400005406982F9C7F21F4837080668093540625
:1034100010920F010C94DF19E4E5F6E08181885FDA
:1034200081830C94DF19E4E5F6E081818850818383
:103430000C94DF19E4E5F6E0228130E1230F08F473
:103440002FEF22830C94DF19E4E5F6E0228130E1CE
:10345000231B08F420E022830C94DF19E4E5F6E056
:10346000238130E1230F08F42FEF23830C94DF191D
:10347000E4E5F6E0238130E1231B08F420E0238318
:103480000C94DF19E4E5F6E0248130E1230F08F421
:103490002FEF24830C94DF19E4E5F6E0248130E17A
:1034A000231B08F420E024830C94DF19E4E5F6E004
:1034B00085E380838091200190912101A0912201D8
:1034C00081839283A3838CE384830C94DF190E940D
:1034D000BE1890E080E00E94C9348F3E9E4F21F0DC
:1034E0000E94B2140E94561A45E050E06CE170E070
:1034F00084E596E00E94AB34809154068C7F11F4F1
:103500000C94561A089580E290E0909311018093F4
:1035100010018091E70381110EC00E94402F81E0CD
:103520008093E7032FEF83ED90E32150804090409C
:10353000E1F700C0000064E670E080E40E94462FDE
:103540009093110180931001892B09F04EC064E61D
:1035500070E080E00E94A22F9093110180931001EF
:10356000892B09F042C064E670E080E00E94A22F3F
:103570009093110180931001892BB9F564E670E0F6
:103580008FE30E94A22F9093110180931001892B49
:1035900061F50E941C3064E670E080E40E94462FD2
:1035A0009093110180931001892BF9F464E670E087
:1035B0008CE00E94A22F9093110180931001892B1F
:1035C000A1F464E670E080E00E94A22F90931101C4
:1035D00080931001892B49F464E670E08FE30E9428
:1035E000A22F90931101809310010E941C308091B2
:1035F00010010895CF93C82F873070F58091100186
:1036000090911101892B89F564E670E080E40E94B5
:10361000462F9093110180931001892BD1F464E619
:1036200070E082E10E94A22F90931101809310011B
:10363000892B79F481E090E001C0880FCA95EAF700
:1036400064E670E080950E94A22F90931101809310
:103650001001CF910C941C308A30B9F040F48830BE
:1036600071F0893079F0209A2898CF9108958C30A4
:1036700091F070F08D30B9F73E9A4698F6CF219AC6
:103680002998F3CF229A2A98F0CF239A2B98EDCF3E
:10369000529A5A98EACF539A5B98E7CFCF938730E4
:1036A00008F040C08091100190911101C0E0892B79
:1036B00071F464E670E080E40E94462F909311015B
:1036C00080931001892B31F0C0E00E941C308C2FB8
:1036D000CF91089564E670E083E10E94A22F909359
:1036E000110180931001892B79F764E670E081E481
:1036F0000E94462F9093110180931001892B21F78E
:1037000084E690E00E94D12F97FF05C090931101AD
:1037100080931001D9CFC82FC0951092110110923B
:103720001001D3CFCFB18FB1869586958C73C370BE
:103730008C2BC82FC095CBCF1F920F920FB60F9234
:1037400011242F933F934F935F936F937F938F93A6
:103750009F93AF93BF93CF93DF93EF93FF93D0915A
:10376000E900DF708091EC00C82FC17080FDC0E8D7
:103770001092E9008091F000877F8093F0007894A8
:103780000E943B151092E9008091F00088608093C0
:10379000F000CD2BCF70C093E900FF91EF91DF9146
:1037A000CF91BF91AF919F918F917F916F915F91D9
:1037B0004F913F912F910F900FBE0F901F90189532
:1037C0001F920F920FB60F9211242F933F934F9396
:1037D0005F936F937F938F939F93AF93BF93EF9379
:1037E000FF938091E10082FF09C08091E20082FF97
:1037F00005C08091E1008B7F8093E1008091DA0029
:1038000080FF24C08091D80080FF20C08091DA0022
:103810008E7F8093DA008091D90080FFA1C080E183
:1038200089BD82E189BD09B400FEFDCF81E08093AE
:10383000460680912006811109C00E944B050E9416
:1038400018068091E20084608093E2008091E1009C
:1038500080FF17C08091E20080FF13C08091E200DA
:103860008E7F8093E2008091E20080618093E2008D
:103870008091D80080628093D80019BC85E0809345
:1038800046068091E10084FF2FC08091E20084FF12
:103890002BC080E189BD82E189BD89B5982F9170E7
:1038A00080FFFBCF8091D8008F7D8093D8008091DE
:1038B000E1008F7E8093E1008091E2008F7E809313
:1038C000E2008091E20081608093E20080914706EF
:1038D000882309F44BC084E0809346060E94261595
:1038E0000E94B809109221068091E10083FF27C051
:1038F0008091E20083FF23C08091E100877F809365
:10390000E10082E080934606109247068091E10034
:103910008E7F8093E1008091E2008E7F8093E200B1
:103920008091E20080618093E20042E060E080E00C
:103930000E94E6058091F00088608093F000FF917E
:10394000EF91BF91AF919F918F917F916F915F9117
:103950004F913F912F910F900FBE0F901F90189590
:1039600019BC109246061092200670CF8091E30099
:1039700087FD93E090934606B1CF78941F921FB6CF
:103980001F9211248F939F93AF93BF938091DA0579
:103990009091DB05A091DC05B091DD050196A11D9C
:1039A000B11D8093DA059093DB05A093DC05B093FD
:1039B000DD05BF91AF919F918F911F901FBE1F900A
:1039C00018952FB7F8948091DA059091DB05A091B6
:1039D000DC05B091DD052FBF08951F93CF93DF93D2
:1039E000C62FD42F122FFC018281882399F0609377
:1039F0005D050E94E11C9093450580934405C770C6
:103A000081E001C0880FCA95EAF7DF91CF911F913D
:103A10000C94CA0880915D05861340C0209144052E
:103A2000309145059FB7F8944091DA055091DB0538
:103A30006091DC057091DD059FBF421B530B483C34
:103A4000510560F5C0E2CD0F8D17C1F090E2980FDF
:103A5000983048F4877091E001C0990F8A95EAF791
:103A6000892F0E94BF08C83048F481E09D2F9770CD
:103A700001C0880F9A95EAF70E94CA08812F0E9418
:103A80004013C83090F4D77081E001C0880FDA95F8
:103A9000EAF7DF91CF911F910C94BF08C77081E0C6
:103AA00001C0880FCA95EAF7F4CFDF91CF911F913B
:103AB00008952F923F924F925F926F927F928F92D2
:103AC0009F92AF92BF92CF92DF92EF92FF920F93AD
:103AD0001F93CF93DF93CDB7DEB728970FB6F89437
:103AE000DEBF0FBECDBF7C01FC0183819481892B99
:103AF00041F01081D180812F8D218F3F11F00C94E6
:103B00007C2528960FB6F894DEBF0FBECDBFDF919F
:103B1000CF911F910F91FF90EF90DF90CF90BF90CA
:103B2000AF909F908F907F906F905F904F903F905D
:103B30002F9008950E947E10082F682F89819A8106
:103B40000E947208E12FF0E026E0D29EE00DF11D08
:103B5000112434E5039FE00DF11D1124EE0FFF1F2A
:103B6000ED58FA4F0591149180911D06882321F09C
:103B700080911E068111ADC7F70182810930FDE5F4
:103B80001F07C9F10A302DE5120709F4B2C0023C43
:103B90003CE5130709F0D3C08823E9F090911E019A
:103BA0008091E4059F3F09F0C3C010921E018F7EF3
:103BB0008093E40540E060E080E00E941B0A4091B1
:103BC000E4055091E5056091E6057091E7058FE009
:103BD00090E00E94F1348091D105877009F491CF73
:103BE000F7018281882309F48CCF82E00E945F1262
:103BF00088CF81E174C78823C9F18091E40591E001
:103C0000980F9770887F953008F4892B8093E4058E
:103C10008091E4058770EFEF8E9FC0011124959588
:103C2000879595958795992790938900809388002B
:103C300090938B0080938A0090938D0080938C00EA
:103C40004091E4055091E5056091E6057091E70526
:103C50008FE090E00E94F1346091190670911A068D
:103C600080911B0690911C060E94CD11F701828164
:103C7000882309F4D3C09801215E3C4525303105E5
:103C800008F0CCC06FE1600F6093E0058CE090E03D
:103C90000E94DF34F7018281882309F435C104369C
:103CA000110571F008F04EC10B32110549F0C80141
:103CB0000C32110508F024C10497849708F024C140
:103CC0000E94531380910C01882309F468C18091EC
:103CD000D405811164C10E94E11C90935C0580931E
:103CE0005B0510935A050093590582E00E945F120C
:103CF00072CF882309F4BACF9091E405892F877F8A
:103D000093FF88608093E40583FF05C040E060E096
:103D100080E00E941B0A4091E4055091E505609106
:103D2000E6057091E7058FE090E00E94F1349ECFA8
:103D30009FEF90931E0180618093E40540CFF801CE
:103D4000EB50FD45E031F10508F090CFED5DF84C0A
:103D50000C944830882309F489CF89E695E00E94C5
:103D6000DA1384CF882309F481CF8FE595E0F7CF6C
:103D7000882309F47BCF89E495E0F1CF882309F407
:103D800075CF8FE395E0EBCF882309F46FCF8CE2FA
:103D900095E0E5CF882309F469CF89E195E0DFCF8D
:103DA000882309F463CF86E095E0D9CF882309F40E
:103DB0005DCF8CEF94E0D3CF882309F457CF89EE01
:103DC00094E0CDCF882309F451CF86ED94E0C7CF9E
:103DD000882309F44BCF8CEC94E0C1CF882309F4FD
:103DE00045CF82EC94E0BBCF882309F43FCF82EB30
:103DF00094E0B5CF882309F439CF8FE994E0AFCFB1
:103E0000882309F433CF8CE894E0A9CF882309F400
:103E1000E2CE80915406837084608EC217FF3ACF41
:103E2000882309F471C08091D405809358051092BD
:103E3000D4058091E005813009F441C08823D9F18F
:103E4000823009F445C0843009F449C08FE39CE90D
:103E50000197F1F700C000004801E89497F8FCE0F2
:103E6000CF2ED12C94010C2C02C0369527950A94A4
:103E7000E2F72F7087E290E029F0822F90E02A305D
:103E800098F54D960E94401394E0C91AD108ECEFC2
:103E9000CE16EFEFDE0631F78091E005813051F16B
:103EA000882321F1823011F1843041F1809158054D
:103EB0008093D405EFCE82EE0E944A09C7CF88E1F5
:103EC00093E00E94311188E193E00E942511BECF5A
:103ED00082EE0E944A0987E50E944013B7CF86EE22
:103EE0000E94401388E1F8CF0697CCCF82EE0E9463
:103EF0001809DCCF8CE20E944013D8CF88E2FBCFB8
:103F00008D970C9708F4DCCE0E945313033FFCE519
:103F10001F0709F413C108F0FFC0083D3CE5130773
:103F200009F408C1093D8CE5180709F413C1073DE0
:103F30009CE51907A1F526E241EE61EEC7010E945A
:103F4000ED1C49CE0931FCE51F0709F473C070F47C
:103F500007313CE51307D1F008318CE51807A1F6CD
:103F600080910D0190910E01059715C00B319CE5D4
:103F7000190709F4CDC008F4C7C00C31FCE51F07D0
:103F800019F610920C010E94531309C080910D0183
:103F900090910E01059690930E0180930D01F7010B
:103FA0009281992309F4D5C510925D050230FCE594
:103FB0001F0708F4B7C506312CE5120738F0980141
:103FC0002A5F3C452730310508F0ACC50E94AE128F
:103FD0009093F7058093F6050F303CE5130709F43D
:103FE00077C108F0F1C008309CE5190709F45AC1FF
:103FF00008F0C6C00430FCE51F0709F447C108F00B
:10400000ACC002303CE5130709F438C103301C454D
:1040100009F438C16091F6051091F70584E090E04D
:104020000E94DF34612F81E290E00E94DF340E9421
:104030002615D1CD80910E018F9380910D018F9324
:1040400083E291E09F938F931F9288E08F93BF92BA
:10405000AF920E940C320FB6F894DEBF0FBECDBFF8
:104060006501EAE09E2EF6018081882309F497CF4E
:10407000813009F046C091818281913049F4F2E0AB
:10408000CF0ED11C0E944013EFEFCE1ADE0AEBCF09
:10409000923031F422E0C20ED11C0E944A09F4CFC2
:1040A000933031F432E0C30ED11C0E941809ECCFDA
:1040B000943021F08FEFC81AD80AE6CF92E0C90EEB
:1040C000D11C30E020E0A6014F5F5F4F8053990B79
:1040D0008A30910550F021503109B0F28FE99FE00C
:1040E0000197F1F700C00000F6CF929EB001939EB9
:1040F000700D11249C01260F371FF60181816A0182
:10410000E2CF0E948E13C0CF80910C01811139CF74
:1041100081E080930C0143CF053FECE51E07B1F031
:1041200088F0063F2CE5120709F039CF27E245EE6B
:1041300066EE04CF27E245EE65EE00CF26E241EEC3
:1041400060EEFCCE27E245EE64EEF8CE26E241EECC
:1041500062EEF4CE28E241E0EFCF8091F605806177
:1041600006309CE5190709F447C08091F605886080
:1041700007301C4508F440C08091F60580623CC0C1
:104180000B30FCE51F0709F49BC068F409303CE5DF
:10419000130709F48BC00A301C4509F03BCF80910E
:1041A000F6058C6029C08091F6058B7F0D309CE56B
:1041B000190711F18091F6058D7F0E301C45E0F056
:1041C0008091F605877F18C00A3FFCE51F0709F4B8
:1041D00061C060F502313CE5130709F481C078F451
:1041E00000319CE5190709F477C08091F6058F7BB3
:1041F00001311C4509F00ECF8093F6050BCF043139
:10420000FCE51F0709F47AC008F470C005311C45AD
:1042100009F000CF8091F60582FB992790F921E003
:10422000922790FB82F990FB83F9E6CF0D3F8CE556
:10423000180709F449C070F40B3FECE51E0771F153
:104240008091F7058E7F0C3F1C4509F0E3CE8093EB
:10425000F705E0CE0F3F2CE5120709F44BC060F1E3
:1042600001151D4509F0D6CE8091F705982F909540
:1042700091708E7F892B90FB81F9E9CF8091F605B3
:104280008160BACF8091F6058260B6CF8091F60545
:104290008460B2CF8091F7058160D9CF8091F70516
:1042A0008260D5CF8091F6058064A6CF0E94261546
:1042B0008091F6058068A0CF8091F7058360C7CF15
:1042C0008091F6058E7F98CF8091F7058D7FBFCFC7
:1042D0008091F6058F7E90CF8091F6058F7D8CCFF3
:1042E0000E9426158091F6058F7786CF8091F6057E
:1042F000837F82CF8091F7058C7FA9CF0E942615FE
:104300009091F605892F97FB87F9805875CF9923EF
:1043100009F4B1C08091D4058272F801E25CFC45D9
:10432000E431F10508F052C0ED5CF84C0C944830D3
:104330008091540691E089278093540610920F01D2
:104340000E94DF1948CC4CEF59E167EE79E10E94F9
:10435000C40941CC47EE59E16CEF79E1F8CF43E174
:104360005AE16CE07AE1F3CF4CE05AE163E17AE1A3
:10437000EECF44E25AE16AE17AE1E9CF4AE15AE15B
:1043800064E27AE1E4CF48E35AE16EE27AE1DFCF1A
:104390004EE25AE168E37AE1DACF4CE45AE162E4B2
:1043A0007AE1D5CF42E45AE16CE47AE1D0CF809152
:1043B000540683708461C0CF8091540683708463F7
:1043C000BBCF8091540683708864B6CF0E3DECE578
:1043D0001E0709F446C00830FDE51F0709F444C074
:1043E00001151C4509F047C00E9426153FEF84E3E4
:1043F0009CE0315080409040E1F700C00000F8940C
:1044000081E08093E00080E28093D8001092C900A0
:10441000EFE1FEE43197F1F700C000001DBA109201
:1044200068001CBC10BE1FBA10927A0010926E0079
:1044300010926F0010927100109272001092C900D9
:104440001092BC0014B817B81AB81DB810BA109260
:10445000BC0015B818B81BB81EB811BA0C94003FB0
:10446000BACB0E94B214B7CB80911F0691E0892786
:1044700080931F06B0CBF70100811181992309F4C5
:1044800044C0C8010E947E10D82E682FC8010E9427
:104490007208B8018D2D0E94E60E082FD92E982E95
:1044A000F701C580C2947FE0C722128111111092DA
:1044B000D3058091D1058770C1F01123B1F08D2D06
:1044C000807F803449F090E2900F983070F0803611
:1044D00019F4F6EF9F1649F082E00E945F12809176
:1044E000D1058770882483948111812C7D2C72944E
:1044F0005FE075226BE0262E271408F441C0E72DFB
:10450000F0E0E95BF84C0C944830C8010E9449087F
:10451000D82EBFCF2D2D2F70C22E8D2D807F19F05C
:10452000C29440EFC4221123C9F0CC2069F080E28C
:10453000800F883010F091100BC08091D405C82AEC
:10454000C092D4050E940408802F0E944A0918C016
:104550008091D305C82AC092D305F4CF802F0E9442
:104560001809CC2069F0C094005E083010F091105A
:1045700056C08091D405C822C092D4050E94040878
:10458000272D2850330B2430310510F40E94B80930
:10459000112379F08D2D807F803619F436EF931634
:1045A00041F080915F05823009F08BC283E08093F7
:1045B0005F058820A9F08091D10580FD11C0F70129
:1045C00012828595859585950E947712C7010E9474
:1045D000591D8091D1058595859585950E943C1240
:1045E00085E0F701D50101900D928A95E1F7898167
:1045F0009A810E9449089A81E981F0E026E0929F21
:10460000E00DF11D112434E5839FE00DF11D11240F
:10461000EE0FFF1FED58FA4F8591949172CA809169
:10462000D305C822C092D305A9CF3D2D3F70632E7C
:104630008D2D807F803219F0629430EF63229920B3
:1046400041F081E0981631F1112381F1CC2049F13C
:104650007BCF112391F09091D505862D892BC11028
:1046600003C00E94CA088CCFE1E0CE12FACF98179F
:1046700009F486CF8093D50583CFC11006C00E9470
:10468000FE07862D0E94BF087BCFF1E0CF1609F40C
:1046900077CFF5CF112339F0222423942C1408F47A
:1046A0006FCF862DDECFC1106BCFEBCFCC2049F37F
:1046B00029E3322E931009C02FEF37EE83E021500B
:1046C00030408040E1F700C00000802F0E941809B0
:1046D00057CF8D2D86958695837069F0813009F0CE
:1046E0004FCF802F9D2D9370111102C090E080E07C
:1046F0000E94D40845CF802F9D2D9370111102C0C8
:1047000090E080E00E94EA083BCF8D2D837009F095
:1047100067C0111135CF202F229526952770220FC3
:10472000220F402F4F7050E070E060E0022E04C076
:10473000440F551F661F771F0A94D2F780E090E060
:10474000DC0104FF0FC08FE090E0A0E0B0E004C007
:10475000880F991FAA1FBB1F2A95D2F780959095A5
:10476000A095B0952D2D269526952370223029F100
:10477000D8F42090D6053090D7054090D8055090B9
:10478000D905213069F0842B952BA62BB72BBC01C2
:10479000CD0162217321842195210E940E09F0CE62
:1047A00042295329642975291A012B01282A392AFB
:1047B0004A2A5B2AC201B101F0CF842B952BA62B8C
:1047C000B72B2091D6053091D7054091D80550914F
:1047D000D905BC01CD016227732784279527DDCF3A
:1047E0008695112311F08D2D8170882309F4C8CE90
:1047F000202F229526952770220F220F402F4F70D1
:1048000050E070E060E0022E04C0440F551F661FA8
:10481000771F0A94D2F780E090E0DC0104FF0FC01C
:104820008FE090E0A0E0B0E004C0880F991FAA1FBD
:10483000BB1F2A95D2F780959095A095B0952D2D08
:10484000269526952370223029F1D8F42090190658
:1048500030901A0640901B0650901C06213069F0DB
:10486000842B952BA62BB72BBC01CD016221732184
:10487000842195210E94011283CE42295329642963
:1048800075291A012B01282A392A4A2A5B2AC201D2
:10489000B101F0CF842B952BA62BB72B20911906B5
:1048A00030911A0640911B0650911C06BC01CD01A7
:1048B0006227732784279527DDCF2D2D2F70C22ED9
:1048C000112329F0822F0E947712802FCACE802FC9
:1048D0000E94BF088C2D0E943C1252CE802F32EFD6
:1048E000931609F452C0391578F090EF991629F112
:1048F000E1EF9E1609F441C0112309F46AC0C1100A
:1049000023CE8D2D8F713EC0F3EF9F1609F442C068
:1049100094EF292E9210F0CF112309F44FC00D2DE2
:104920000F71802F0E94771228E0029FC00111248E
:1049300083608093D105802F25C01123C1F0C11061
:104940001FCE2D2D2F7161E070E080E090E004C05B
:10495000660F771F881F991F2A95D2F72091190695
:1049600030911A0640911B0650911C06A1CF3324AA
:1049700033943C1408F404CEE4CF8D2D8F711123B1
:1049800009F4A9CF0E947712FBCD8D2D8F711123D1
:10499000C9F3A1CF60E070E0CB01112309F46ACF25
:1049A0002D2D2F7161E070E080E090E004C0660F73
:1049B000771F881F991F2A95D2F75CCF81E00E944C
:1049C0005F1231E03C1508F0DBCD82E00E945F12FF
:1049D000D7CDCC2059F0893309F077CE8FEF97EE01
:1049E000E3E081509040E040E1F76DCE8D2D8F7176
:1049F00072CFE0E1E00FE73008F03EC0F0E0ED5AA2
:104A0000F84C0C944830112309F4BACD809161051B
:104A100091E0892780936105B3CD10936105B0CDF6
:104A200081E08127F7CF1111ABCD81E0F3CF1111D8
:104A3000A7CD10926105A4CD112321F082E08093CF
:104A40005F05F3CF80915F05823021F481E0809390
:104A50005F0596CD833009F093CD10925F05E9CFC5
:104A6000112339F080916005882381F2109260054E
:104A700087CDCC2059F284CD80916005CC20A9F05F
:104A8000882341F08091610591E089278093610539
:104A900010926005802F111158CD0E94180986E0F0
:104AA000F70111928A95E9F76BCD882309F468CD57
:104AB000111166CD8091610591E089278093610590
:104AC000D5CF813009F075CD10925F051092610548
:104AD00070CDF7018281198281118BC882E18A83AE
:104AE000F70180818B8381818C838EEF8D8365E0DC
:104AF000C5010E943A0740C885E09E012F5F3F4FE5
:104B00005901D90101900D928A95E1F7F7012281AF
:104B100089819A8121110C949A1D0E944908082FBD
:104B20000C94A21D0631FCE51F0709F0F0CB809123
:104B3000D4058A7A91E009F490E090935E0569E2E9
:104B4000811165E38AEB93E00E947C070E940408D0
:104B500042C806311C4509F08ECC80915E0569E2A1
:104B6000811165E38AEB93E00E945207EFCF1F9318
:104B7000CF93DF9380916705807FA9F480916405CE
:104B8000882389F080919905D0916805609162052C
:104B900070916305A0916505B0916605C62FC72386
:104BA00016E0D81304C0DF91CF911F91089590E0D3
:104BB000109711F0CF3F19F401968770F2CF189F2C
:104BC0009001199F300D1124F901E759FA4F4181E5
:104BD0004713F2CF40814613EFCF42814111ECCF12
:104BE000438154814A1B5B0B483C510528F7809157
:104BF00067058F70806180936705F901E259FA4F6C
:104C000080818F708061808382E695E00E94591DCB
:104C1000DF91CF911F910C94A008AF92BF92CF92D9
:104C2000DF92EF92FF920F931F93CF93DF93CDB755
:104C3000DEB761970FB6F894DEBF0FBECDBF8C0113
:104C400085E0F801DE011D9601900D928A95E1F74D
:104C5000F80180819181E28022E6A22E25E0B22E29
:104C600060916505709166056115710509F43EC195
:104C70003091620540916305232F24232F3F09F4CF
:104C800035C1C380D480F0906405F601E61BF70BB4
:104C9000FF2009F4FBC020916705522F507FE83CAC
:104CA000F10508F0BBC0511178C0FE2C491321C09A
:104CB00038131FC0E1101DC02F70206120936705BD
:104CC000C5010E94591D80916705F80185838F2DCC
:104CD00061960FB6F894DEBF0FBECDBFDF91CF91C6
:104CE0001F910F91FF90EF90DF90CF90BF90AF900A
:104CF0000895CD2829F0282F29232F3F09F022C11C
:104D000020E0F22FF170DF2E20FF3DC020919905A9
:104D10004091680556E0241315C08D879E878D85C8
:104D20009E850E94C010292F22952F702230F8F006
:104D3000243020F59F70F9F0F8019581907FD9F427
:104D4000D12C1FC030E0529FF001539FF00D112471
:104D5000E759FA4F6181961306C06081861303C03C
:104D60006281E61210C02F5F3F4F2770D4CF9F7033
:104D700011F0882329F3805E883010F3C8010E9467
:104D8000591DFD2CA4CFEE2009F4A1CF8091670519
:104D9000816080936705F12C9ACF491312C03813B4
:104DA00010C0E1100EC0F8012583C8010E94591DF2
:104DB00086E0F801A2E6B5E001900D928A95E1F750
:104DC00086CF8D879E878D859E850E94CA108823F9
:104DD00009F1EE20F9F080916705803270F02091A2
:104DE00062053091630538872F831986DB86CA8672
:104DF0008C87CE0107960E94591D86E0F801A2E635
:104E0000B5E001900D928A95E1F70E94B725FF2445
:104E1000F3945DCFC8010E94591DF9CF51110AC00A
:104E200082E695E00E94591D86E0F50111928A956F
:104E3000E9F7B1CF49130FC038130DC0E1100BC013
:104E4000F8012583C8010E94591D86E0F5011192E1
:104E50008A95E9F73CCF8D879E878D859E850E9438
:104E6000CA108823B9F2EE20A9F28091670580323A
:104E700020F220916205309163053A8329831B82D9
:104E8000DD82CC828E83CE010196B5CFE83CF10560
:104E9000E0F6FE2CEE2009F4BDCF491316C03813FE
:104EA00014C08091670580FD83CF982F907F09F40F
:104EB0007FCFF8018583903F09F477CF982F907FBB
:104EC000905F8F70892B858370CF8D879E878D85AE
:104ED0009E850E94CA10811190CF809167058160E4
:104EE00080936705C8010E94591DF1CEEE2009F498
:104EF00091CF8D879E878D859E850E94CA10F82E42
:104F0000882309F487CF86E0F801A2E6B5E0019096
:104F10000D928A95E1F780916205909163050E9458
:104F2000C01092959F70963051F4863F41F0809169
:104F3000610591E0892780936105909360050E9447
:104F4000B725C5CE21E02E25DCCE1F93CF93DF936E
:104F5000CDB7DEB767970FB6F894DEBF0FBECDBFF3
:104F60006D8B7E8B8F8B8E899F89892BE1F0852FAE
:104F700084238F3F09F098C05FEF4FEF14C030914A
:104F80006105332309F44EC0E42FF0E036E0539F6F
:104F9000E00DF11D1124EE0FFF1FE450FE4F408184
:104FA0005181822B8C931A8A198A4B8B5C8B85E0FA
:104FB000FE017396DE011D9601900D928A95E1F730
:104FC00086E0FE013D96DE01179601900D928A95CE
:104FD000E1F7CE0107960E940D26811112C086E0EE
:104FE000FE013796DE01119601900D928A95E1F748
:104FF0008A859B85892B29F08F81988589238F3F0E
:10500000C9F516E08091990590916805891320C033
:1050100067960FB6F894DEBF0FBECDBFDF91CF917C
:105020001F91089580958223BDCF96E0929FD00175
:10503000939FB00D1124A759BA4FFE0131960190EC
:105040000D929A95E1F7809368050E94A008D9CF48
:10505000819FC001112487599A4F0E940D268823F1
:10506000B9F28091990590E0019687709927809315
:105070009905C8CF2091680530E0C9010196877075
:105080009927409199054817190679F60E94261527
:10509000109268051092990586E0E2E6F5E0DF01DE
:1050A0001D928A95E9F7ADCF81E090E0042E01C012
:1050B000880F0A94EAF7A52FB0E0A65BBA4F2C91AF
:1050C0003D8931115CCF322F38235BCF7F928F9295
:1050D0009F92AF92BF92CF92DF92EF92FF920F9387
:1050E0001F93CF93DF938091100190911101892B31
:1050F000A1F08091E6038F5F8093E60381110DC0DC
:105100000E94831A90E09093110180931001892BE3
:1051100021F40E94671A0E943814E8EE8E2EE5E012
:105120009E2E640110E000E077E0E72EE10E812F73
:105130000E94FA1A8E2D0E94FA1A812F0E944E1B8D
:10514000E60199916E01F12C891729F0FE01319742
:105150008083FF24F3948E2D0E944E1BF6019681CE
:10516000891709F47CC0868381E08F29082B0E946F
:1051700098121F5F1730C1F60E94E11C6091DB039B
:105180007091DC039093DC038093DB032091DA03BE
:1051900030E0261B370B820F931F6BEF70E00E94ED
:1051A0002030E82E392F182F8093DA03F090DE0399
:1051B000FF2009F449C31092DE03E091DE05F0916F
:1051C000DF05AF01425F5F4F20E06BEFB62E6BEF64
:1051D00070E0A191AB3FA1F0CA2ED12C8E2D932F60
:1051E0001A1708F43EC08C199D09092E000CAA0B51
:1051F000BB0B4E97A105B105D0F1DF011197BC9211
:105200004E175F0731F72093DE03011102C0211111
:105210001DC31092DD03A091DE05B091DF059091D2
:10522000DE03EBEFF5E049E056E080E03191E40188
:1052300029914E01321751F03C913B3FD1F41C9320
:10524000BF0161507109EB01288391E011964E175F
:105250005F0761F79093DE038093DD03FBC280E07C
:1052600084CFDB01AC19BD098A0F9B1FBECF2F2D48
:10527000C7CF81E0EBCF10921D01409350065093B1
:105280005106609352067093530681E080930F019C
:10529000F11015C38091E40583FD11C360911906D7
:1052A00070911A0680911B0690911C060E94B1070E
:1052B000823009F473C2833009F473C2813009F07B
:1052C00073C281E090E00E943B11F9C280910B0112
:1052D000C1E018130BC020915406237080910A017D
:1052E00090E0C1E02817190609F4C0E0C170C0932E
:1052F0001F01193140F4E12FF0E0E65AF84C0C940C
:105300004830C11102C0C0E027C040E060E080E04A
:105310000E941B0AF8CF80911D01C82FCC0FCC0F23
:10532000C80F45E0E42EEC0EDE2CD0E3DE1510F4C1
:1053300030E3D32E60915506709156068091570642
:105340000E948C0CC62EB72EA82ED0E0CD15C0F032
:10535000C1E0FFE2FE15B8F280911D018F5F8093DE
:105360001D01C111A5C282E080930F0180911F0130
:1053700081119EC211119CC283E080930F0198C2DB
:10538000FE01E757FC4F808190911E01892331F087
:105390002A2D4C2D6B2DCE010E941D0A2196D6CFB1
:1053A00080911D01C82FCC0FCC0FC80F25E0E22E35
:1053B000EC0EDE2C20E32E1510F490E3D92EB090E5
:1053C0005606C0905706D09155066D2F7B2D8C2D1B
:1053D0000E948C0CA62E972E882E609158066D0F79
:1053E0007B2D8C2D0E948C0CC62EB72E782ED0E0F3
:1053F000CD1530F0C1E08FE28E1508F0ADCF83CF30
:10540000FE01E757FC4F908180911E01892359F0DE
:10541000272D4C2D6B2D90FD03C0282D4A2D692D75
:10542000CE010E941D0A2196E3CF80911D01C82F55
:10543000CC0FCC0FC80F85E0E82EEC0ECE2C90E3FD
:105440009E1510F4D0E3CD2EB0905606A0905706CE
:1054500020915806B0E4DB2E3D2D329F312D1124D2
:10546000D32ED0E0CC1530F0C1E09FE29E1508F0BD
:1054700073CF49CFFE01E757FC4F808190911E0109
:105480008923B9F0FE01EE0FFF1FE65DFC4F80811E
:1054900082958F70609155068D9D600D11247B2D36
:1054A0008A2D0E948C0C462F282F672FCE010E9438
:1054B0001D0A2196D7CF80911D01C82FCC0FCC0F8C
:1054C000C80FE5E0EE2EEC0ECE2CD0E3DE1510F486
:1054D00070E3C72EB0905606A0905706209158064C
:1054E00060E4D62E3D2D329F312D1124D32ED0E0F5
:1054F000CC1508F0B9CFFE01E757FC4F80819091A1
:105500001E018923D9F0FE01EE0FFF1FE75DFC4F5E
:105510006081D69EB001112455E0759567955A9526
:10552000E1F780915506680F7B2D8A2D0E948C0C27
:10553000462F282F672FCE010E941D0A2196D8CF13
:1055400080911D01C82FCC0FCC0FC80F35E0E32E82
:10555000EC0EDE2CD0E3DE1510F420E3D22EC0904A
:105560005506D0915606B09057066091580666953C
:105570006695669580915006909151060E94820C26
:105580000E940B0C805887FD8195880F282F3B2D9A
:10559000239F212D1124822F6C2D7D2F0E948C0C96
:1055A000C62EB72EA82ED0E0CD1508F05DCFFE0197
:1055B000E757FC4F808190911E01892331F02A2DFD
:1055C0004C2D6B2DCE010E941D0A2196EDCF86E158
:1055D0009BE00E94590EC82FBFCE8CEE9AE0F9CF07
:1055E0008DEE9BE00E94FD0DF6CF8EEC9BE0FACF96
:1055F00083EB9BE00E94800DEECF87E99BE0FACF22
:105600008AEE9AE0E6CF81EE9AE0E3CF88ED9AE069
:10561000E0CF8FEB9AE0DDCF81EB9AE0EBCF8AE52C
:105620009CE0E0CF86E89BE0DDCF82E79BE0E2CF25
:1056300084E89AE00E941E0DCECF86E59AE0FACF6C
:105640008FE19AE0F7CFC1111EC06091580620E1AA
:10565000620F08F46FEF80915006909151060E94FE
:10566000820C6AE070E00E942030892B09F04BCE5A
:105670000E94D13060E370E00E94343060911E01DE
:105680000E94991969CE80911D01C82FCC0FCC0FB3
:10569000C80F95E0E92EEC0E8E2DD0E3DE1508F450
:1056A00080E3D0E0C82ED12CCC15DD0534F0C1E06C
:1056B000EFE2EE1508F050CE26CE60911E01CE012D
:1056C0000E9499192196F0CFC1111EC06091580611
:1056D00020E1620F08F46FEF80915006909151061F
:1056E0000E94820C65E070E00E942030892B09F056
:1056F0000ACE0E94D13060E370E00E9434306091A5
:105700001E010E94771928CE80911D01C82FCC0F51
:10571000CC0FC80F85E0E82EEC0E8E2DF0E3FE15C1
:1057200008F480E3D0E0C82ED12CCC15DD0534F090
:10573000C1E02FE22E1508F00FCEE5CD60911E01DD
:10574000CE010E9477192196F0CF10930B01809122
:105750005406837080930A010E942B180DCE40914D
:1057600050065091510660915206709153062FB722
:10577000F8948091DA059091DB05A091DC05B09159
:10578000DD052FBF841B950BA60BB70B4A97A10510
:10579000B10508F48DC010920F018AC082E090E03C
:1057A00092CD83E090E08FCD80911E01811187C062
:1057B00040E060E00E941B0A82C09170892B09F4CE
:1057C00090C08091E4039091E5038130984780F088
:1057D00010921F066091190670911A0680911B069F
:1057E00090911C060E94CD111092E5031092E403E3
:1057F0008091E4039091E50301969093E5038093F3
:10580000E403802FDF91CF911F910F91FF90EF90D4
:10581000DF90CF90BF90AF909F908F907F90089532
:105820000E94C71165C0892B61F31092E5031092A5
:10583000E4036091190670911A0680911B069091FD
:105840001C060E94CD11DDCF0111E3CC8091DD0358
:105850008111DFCC8FB7F8944091DA055091DB05C8
:105860006091DC057091DD058FBF4093DF0350939D
:10587000E0036093E1037093E203F090210610E0EF
:10588000F11008C080915406182F137019F0182FCA
:105890001695169580910F01813009F417CD882354
:1058A00009F4E9CC823009F450CF833009F457CFA2
:1058B000F11005C080912106882309F4EBCC80917A
:1058C000E4039091E50320911F06222309F4ABCF56
:1058D000009709F072CF0E94BE110E94BB110E9476
:1058E000B811C091E303CC2309F49ACF0E94BB11F5
:1058F00081E0C827C093E30364CFCDB7DEB7C955B5
:10590000D1090FB6F894DEBF0FBECDBF84B7877F35
:1059100084BF0FB6F894A895809160008861809349
:105920006000109260000FBE80E890E00FB6F8941F
:1059300080936100909361000FBE85B7806885BF3A
:1059400085B7806885BF0E944B050E94180680912C
:10595000E20084608093E200789480914606882378
:10596000A1F01091E9001F709091EC00892F8170D7
:1059700090FD80E8182B1092E9008091E80083FDEB
:105980000E943B151F701093E90082E084BD93E0F4
:1059900095BD9AEF97BD80936E000E94831A90E0A8
:1059A00090931101809310010E9498120E94A712F7
:1059B000A8EEB5E0F9E0CF2EF6E0DF2EEBEFF5E054
:1059C00011921D92CE16DF06D9F78EE090E00E946C
:1059D000E1308093DE059093DF05FC010E962BEFFE
:1059E0002193E817F907E1F790E080E00E94C934BD
:1059F0008F3E9E4F11F00E94B2140E94671A8CE0F5
:105A000090E00E94BB3490E0B0E0A0E08093E0051D
:105A10009093E105A093E205B093E30589EA8093B2
:105A2000800089E08093810024982C983F988AB167
:105A30008F7C8AB96E98479A8BB180638BB9769ABE
:105A40008FE090E00E94C3346093E4057093E50515
:105A50008093E6059093E70567708FEF869FB0010E
:105A600011247595679575956795772770938900CB
:105A70006093880070938B0060938A0070938D0010
:105A800060938C009091E40594FFCFC080931E0139
:105A90000E94381490E080E00E94C9348F3E9E4FEF
:105AA00011F00E94B21482E090E00E94BB34809317
:105AB0000A060E94AE129093F7058093F60583E0E4
:105AC00090E00E94BB34682F70E090E080E00E947C
:105AD0000E090E940E0A0E940E0A0E94DF1982E13E
